:020000040800F2
:100000005804002045010008910E0008190E000850
:100010008D0E00088D010008A50E000800000000EC
:10002000000000000000000000000000990E000821
:100030009101000800000000950E00089D0E0008C8
:100040005F0100085F0100085F0100085F01000810
:100050005F0100085F0100085F0100085F01000800
:100060005F0100085F0100085F0100085F010008F0
:100070005F0100085F0100085F0100085F010008E0
:100080005F0100085F0100085F0100085F010008D0
:100090005F0100085F0100085F0100085F010008C0
:1000A0005F0100085F0100085F0100085F010008B0
:1000B0005F0100085F0100085F0100085F010008A0
:1000C0005F0100085F0100085F0100085F01000890
:1000D0005F0100085F0100085F0100085F01000880
:1000E0005F0100085F0100085F0100085F01000870
:1000F0005F0100085F0100085F0100085F01000860
:100100005F0100085F0100085F0100085F0100084F
:100110005F0100085F0100085F0100085F0100083F
:100120005F0100085F0100085F0100085F0100082F
:10013000DFF80CD000F018F800480047C90E00089E
:10014000580400200648804706480047FEE7FEE7BF
:10015000FEE7FEE7FEE7FEE7FEE7FEE7FEE7FEE777
:10016000A10E000831010008064C074D06E0E068CA
:1001700040F0010394E8070098471034AC42F6D3EE
:10018000FFF7DAFFC40F0008E40F0008FEE70000E5
:1001900070470000EFF3108072B600BFFEE700006A
:1001A000B0B5044600F012F9054640F20400C2F270
:1001B00000000078611C18BF044400BF00F006F97D
:1001C000401BA042FAD3B0BD2DE9F04F83B041F6F9
:1001D0000043C4F201030E6806229842019008BF52
:1001E0000522002E009200F0ED80019840F20C45AF
:1001F000A0F18043A3F584334FEAB32740F20040D7
:100200004FF6FF73C4F20105C4F20100009A4FF0EB
:10021000000E4FF0010CC1F210034FF0000A4FF036
:10022000000B4FF00F08052F38BF3A46009208E048
:100230000E680AF1010A36FA0AF20EF1040E00F015
:10024000C1800CFA0AF916EA090FF1D04E689E42F5
:1002500012DC122E56D8DFE806F0350B454955550D
:1002600055555555555555555555554D510000BF8A
:10027000D1F80CB046E000BF4FF6FF72C1F2210288
:1002800096420FDC0022C1F2110296421AD00022DF
:10029000C1F21202964215D00022C1F2210296420A
:1002A00010D02FE00022C1F2220296420AD0002292
:1002B000C1F23102964205D00022C1F232029642CA
:1002C00020D100BF8E684EB1012E019A14BFC2F832
:1002D0001490C2F810904FF0080B13E04FF0040B8D
:1002E00010E000BFCF6807F1080B0BE04FF0000BE8
:1002F00008E000BFCF6807F1040B03E0CF6807F107
:100300000C0B00BF7446BAF1080F28BF203C019FB8
:1003100028BF04373E6808FA04F226EA02020BFA04
:1003200004F632433A60CA79D2067FF581AF41F2D2
:100330001807C4F202073A684FF6084C42F001026F
:100340003A603A68CFF6FF7C02F001020292029A0C
:100350002AF00302024452F80C700EF00C0608FA60
:1003600006F4A743009C04FA06F6374342F80C70E3
:10037000D1F804C05FEACC32026854BF22EA090611
:1003800042EA09065FEA8C320660426854BF22EAFC
:10039000090642EA09065FEACC224660826854BF39
:1003A00022EA090642EA09065FEA8C2286604FF0DB
:1003B000010C2A6854BF22EA090642EA09062E60A7
:1003C00036E700BF03B0BDE8F08F000040F25400F4
:1003D000C2F200000068704740F2040040F254018D
:1003E000C2F20000C2F2000100780A6810440860FE
:1003F0007047000080B542F20000C4F202000168BC
:1004000041F010010160032000F07AF80F2000F0A5
:1004100005F800F027F8002080BD000070B540F21C
:100420000406C2F2000640F20C013278C2F200016A
:100430004FF47A730968B3FBF2F20446B1FBF2F1B0
:10044000084600F04FFB0F2C4FF0010508D838B9D3
:100450004FF0FF3021460022002500F025F874609F
:10046000284670BD82B041F21800C4F20200016853
:10047000022241F001010160016801F001010191D6
:100480000199416841F080514160406800F080501E
:10049000009000980420C4F20100016862F31A6120
:1004A000016002B07047000010B54EF60C5CCEF251
:1004B000000CDCF80030C3F3022E8EF00704042C8D
:1004C00028BF0424BEF103034FF0FF3E0EFA04F4EC
:1004D00038BF0023A14399400EFA03F39A43114316
:1004E00000F00F02043A624409010C3200F160434B
:1004F000B0F1FF3FC8BF03F56442117010BD0000AA
:100500004EF60C51CEF200010A684FF6FF031A4076
:1005100060F30A2242F0806040F0FD70086070478E
:100520002DE9F04381B0002800F0858042F20008F8
:10053000C4F202080446D8F800000D4600F0070097
:1005400088420CD2D8F8000020F007002843C8F8F1
:100550000000D8F8000000F00700A8426BD1206826
:1005600041F204098107C4F2020917D5410705D5F4
:10057000D9F8001041F4E061C9F80010010705D571
:10058000D9F8001041F46051C9F80010D9F80010F2
:10059000A26821F0F0011143C9F80010C00741D151
:1005A000D8F8000000F00700A8420CD9D8F80000E5
:1005B00020F007002843C8F80000D8F8000000F039
:1005C0000700A84237D12068410707D5D9F80010A5
:1005D000E26821F4E0611143C9F80010000708D572
:1005E000D9F80000216920F4605040EAC100C9F840
:1005F0000000D9F8002002F00C00082841F2002089
:10060000C0F27A0050D140F6B273C2F38341C0F613
:100610000003595CD2033BD440F60010C0F23D0009
:10062000484341E0606802280AD001282AD159F8DD
:10063000041C890308D4012001B0BDE8F08300BF89
:1006400059F8041C8901F6D5D9F8001021F00301EE
:100650000843C9F80000FFF7B9FE064641F28837A3
:10066000D9F80000616800F00C00B0EB810F97D062
:10067000FFF7ACFE801BB842F2D9032001B0BDE801
:10068000F08300BF59F8041C8907D4D5DCE700BF0C
:10069000D9F8002040F69873C2F34042C0F6000338
:1006A0009A5C4843B0FBF2F0D9F8001040F69A7219
:1006B000C1F30311C0F60002515C40F20C0220FAB3
:1006C00001F140F20800C2F200000068C2F200022C
:1006D0001160FFF7A3FE002001B0BDE8F083000029
:1006E00040F20C0041F20401C2F20000C4F2020127
:1006F0000068096840F6AA72C1F30221C0F6000240
:10070000515CC8407047000040F20C0041F2040107
:10071000C2F20000C4F202010068096840F6AA7241
:10072000C1F3C221C0F60002515CC840704700000E
:100730002DE9F04182B0002868D00446007841F2EB
:100740000006C007C4F2020625D0706800F00C0055
:1007500004281BD0706800F00C00082802D17068D3
:10076000C00313D46068002800F06881B0F5A02FA2
:1007700000F07C81B0F5803F00F07C81306820F48F
:1007800080303060306820F4802076E1306880036B
:1007900001D56068D0B32078800718D5706810F054
:1007A0000C0F07D0706800F00C0008286ED170683C
:1007B000C0036BD43068800702D52069012825D199
:1007C0003068616920F0F80040EAC10030602078AC
:1007D00000071FD42078400732D4E56995B17068CE
:1007E00000F00C00082840F08F80012D0ED07068BA
:1007F000216A00F480328A4208D1616A00F47010E4
:10080000884203D1002002B0BDE8F081012002B08F
:10081000BDE8F081A069002862D00020C4F2422027
:100820000121C0F88014FFF7D1FD0546706A8007EA
:1008300000F18C80FFF7CAFD401B0228F6D92AE19F
:10084000F06910F0805808D1F06940F08050F061F4
:10085000F06900F080500090009847F20007C4F261
:1008600000073868C00529D4386840F480703860C3
:10087000FFF7ACFD054600BF3868C0051ED4FFF782
:10088000A5FD401B6428F7D905E100BF20690028B9
:1008900040F20000C4F2422000F082800121016099
:1008A000FFF794FD054600BF306880073FF588AF2D
:1008B000FFF78CFD401B0228F6D9ECE0E068002829
:1008C00000F08080052800F09780012800F09880D3
:1008D000306A20F001003062306A20F0040092E0BB
:1008E0000020C4F242200021C0F88014FFF76EFD02
:1008F000054600BF706A80077FF56CAFFFF766FDA5
:10090000401B0228F6D9C6E00027C4F24227002087
:100910003866FFF75BFD022D05460BD1306880017C
:1009200040F1BE80FFF752FD401B02284FF003004C
:10093000F4D968E7306880017FF564AFFFF746FDC2
:10094000401B02284FF00300F4D95CE740F20C0092
:10095000C2F20000006844F6D351C1F26201A0FB6C
:100960000101480A019000BF00BF0198411E002804
:1009700001913FF42FAF00BF0198411E0028019163
:100980003FF428AF00BF0198411E002801913FF4B9
:1009900021AF00BF0198411E00280191E4D119E761
:1009A00000210160FFF712FD054600BF3068800797
:1009B0007FF50DAFFFF70AFD401B02284FF0030043
:1009C000F4D920E7306A20F001003062306A20F06C
:1009D00004003062FFF7FAFC054641F2883700BF99
:1009E000306A800720D5FFF7F1FC401BB8424FF07A
:1009F0000300F5D907E700BF306A40F00400306219
:100A0000306A40F001003062FFF7E0FC054641F239
:100A1000883700BF306A800706D4FFF7D7FC401B39
:100A2000B842F7D937E000BFB8F1000F7FF4D5AE78
:100A3000F06920F08050F061CFE600BF306820F40C
:100A400080303060306820F480203060FFF7BEFCDA
:100A5000054600BF306880037FF59DAEFFF7B6FC0A
:100A6000401B64284FF00300F4D9CCE6306840F412
:100A700080203060306840F480303060FFF7A6FCA2
:100A8000054600BF306880033FF585AEFFF79EFC4A
:100A9000401B6428F6D9032002B0BDE8F08100BFF6
:100AA000206AB0F5803F05D17168A26821F4003159
:100AB000114371607168626A21F474111043084334
:100AC000706001203866FFF781FC044630688001C1
:100AD0003FF598AEFFF77AFC001B02284FF00300A9
:100AE000F4D990E6411E0020B0EB116F1CBF01202D
:100AF00070474EF21002CEF2000251604EF62351C2
:100B0000CEF20001F0230B70072190601160704756
:100B1000002804BF0120704710B5044690F83D003E
:100B200028B9002084F83C00204600F05FF824201B
:100B300084F83D002068D4E90212C36823F400530E
:100B4000C360036923F440531A430261D4E90423C8
:100B50001143C268194341F20C639A431143C160C7
:100B60004169A26921F44071114343F60002C4F2C5
:100B700001029042416103D0FFF7B2FD02E000BFE5
:100B8000FFF7C2FD6268192148439100B0FBF1F004
:100B900048F21F51C5F2EB11A0FB01235A096FF077
:100BA000630302FB0300322303EB0010A0FB0101EF
:100BB000F02303EA5113206803EB0212C1F343113F
:100BC00011448160016921F490410161416921F082
:100BD0002A014161C16841F40051C1600020202117
:100BE000206484F83D1084F83E1010BD70B586B0C6
:100BF00040F60004C4F20104006804F540510026E8
:100C00008842049602D006B070BD00BF41F21800C1
:100C1000C4F20200016802AD41F480410160016844
:100C200001F4804101910199016841F004010160E2
:100C30000068294600F00400019001984FF400700C
:100C4000029002200390032005902046FFF7BCFA93
:100C50004FF48060CDE90206204629460496FFF74E
:100C6000B3FA06B070BD00002DE9F04381B0044630
:100C700090F83D0020280DD10F4600294FF00100CB
:100C800000F092801646002A00F08E8094F83C0016
:100C9000012803D1022001B0BDE8F083012084F8CF
:100CA0003C004FF0000921201D46C4F8409084F814
:100CB0003D00FFF78BFBA684E684A1688046B1F572
:100CC000805F25D1206900281CBF38464F463E462C
:100CD000074684F83C90E08C00B3681C20D0002DBF
:100CE00066D120680BE000BF36F8021B00276FF3C7
:100CF0005F214160E18C0139E184E18C81B30168BD
:100D0000090675D5002FEFD017F8011BF1E700BFDA
:100D1000002684F83C90E08C0028DED120681FE09B
:100D2000206802E00168090609D40168090606D4B2
:100D3000016809065CBF01685FEA0161F2D51FB175
:100D400017F8011B05E000BF36F8021B00276FF300
:100D50005F214160E18C0139E184E18C0029E4D11B
:100D6000016849061CD4002D42D0691C0ED10168CF
:100D7000490615D4016849065CBF01685FEA416114
:100D80000ED401684906F2D50AE000BFFFF71EFB4A
:100D9000A0EB08012068A9422AD800684006F5D5D2
:100DA000202084F83D00002001B0BDE8F08300BFA2
:100DB000206800BF0168090608D4FFF707FBA0EB15
:100DC00008012068A942F5D912E000BF17B117F851
:100DD000011B04E036F8021B00276FF35F2141601E
:100DE000E18C0139E184E18C0029E3D1B8E700BF4F
:100DF000C16821F4D071C160416921F001014161F4
:100E0000202084F83D0084F83E00002084F83C0057
:100E1000032001B0BDE8F083FEE7000082B041F29C
:100E20001800C4F20200016841F01001016001687D
:100E300001F0100101910199016841F00401016084
:100E4000006800F004000090009802B070470000B5
:100E500080B540F2100043F60001C2F20000C4F277
:100E6000010100234FF00C0C4FF4165280E80E00E5
:100E7000C0E90333C0E905C3C361FFF749FE002899
:100E800008BF80BDBDE88040FFF784B9FEE70000E1
:100E9000FEE700007047000070470000FFF79CBAB3
:100EA00070470000FEE7000080B582B0019040F27C
:100EB0001000C2F2000001A901224FF6FF73FFF7F4
:100EC000D3FE019802B080BD90B0FFF793FA0024E2
:100ED0000120CDE90B44CDE9094406900A904FF476
:100EE000E0104FF4803102250F9006A8CDE90714D9
:100EF000CDE90D51FFF71CFC20B1EFF3108072B665
:100F0000FEE700BF0F20CDE901054FF48060CDE979
:100F1000040401A802210394FFF702FB20B1EFF3C0
:100F2000108072B6FEE700BFFFF778FFFFF790FF73
:100F300004A400BF204600F01DF84FF47A70FFF7BC
:100F40002FF9F7E748656C6C6F20576F726C64215E
:100F50000000000002E008C8121F08C1002AFAD1F0
:100F600070477047002001E001C1121F002AFBD129
:100F70007047000010B5044601E0FFF795FF14F834
:100F8000010B04490028F8D1BDE810400A20FFF702
:100F90008BBF0000000000200102000000000000E4
:100FA0000000010203040607080900000000010216
:100FB000030402030405060708090A0B0C0D0E0FB3
:100FC00010100000E80F00080000002010000000D2
:100FD000540F0008F80F000810000020480400001B
:100FE000640F000800000000000000000100000085
:080FF000100000000024F400D1
:0400000508000131BD
:00000001FF
